{
    "contractName": "MainContract",
    "abi": [
        {
            "inputs": [
                {
                    "internalType": "string",
                    "name": "name",
                    "type": "string"
                },
                {
                    "internalType": "string",
                    "name": "symbol",
                    "type": "string"
                },
                {
                    "internalType": "uint256",
                    "name": "initialSupply",
                    "type": "uint256"
                }
            ],
            "stateMutability": "nonpayable",
            "type": "constructor"
        },
        {
            "inputs": [
                {
                    "internalType": "address",
                    "name": "spender",
                    "type": "address"
                },
                {
                    "internalType": "uint256",
                    "name": "allowance",
                    "type": "uint256"
                },
                {
                    "internalType": "uint256",
                    "name": "needed",
                    "type": "uint256"
                }
            ],
            "name": "ERC20InsufficientAllowance",
            "type": "error"
        },
        {
            "inputs": [
                {
                    "internalType": "address",
                    "name": "sender",
                    "type": "address"
                },
                {
                    "internalType": "uint256",
                    "name": "balance",
                    "type": "uint256"
                },
                {
                    "internalType": "uint256",
                    "name": "needed",
                    "type": "uint256"
                }
            ],
            "name": "ERC20InsufficientBalance",
            "type": "error"
        },
        {
            "inputs": [
                {
                    "internalType": "address",
                    "name": "approver",
                    "type": "address"
                }
            ],
            "name": "ERC20InvalidApprover",
            "type": "error"
        },
        {
            "inputs": [
                {
                    "internalType": "address",
                    "name": "receiver",
                    "type": "address"
                }
            ],
            "name": "ERC20InvalidReceiver",
            "type": "error"
        },
        {
            "inputs": [
                {
                    "internalType": "address",
                    "name": "sender",
                    "type": "address"
                }
            ],
            "name": "ERC20InvalidSender",
            "type": "error"
        },
        {
            "inputs": [
                {
                    "internalType": "address",
                    "name": "spender",
                    "type": "address"
                }
            ],
            "name": "ERC20InvalidSpender",
            "type": "error"
        },
        {
            "anonymous": false,
            "inputs": [
                {
                    "indexed": true,
                    "internalType": "address",
                    "name": "owner",
                    "type": "address"
                },
                {
                    "indexed": true,
                    "internalType": "address",
                    "name": "spender",
                    "type": "address"
                },
                {
                    "indexed": false,
                    "internalType": "uint256",
                    "name": "value",
                    "type": "uint256"
                }
            ],
            "name": "Approval",
            "type": "event"
        },
        {
            "anonymous": false,
            "inputs": [
                {
                    "indexed": true,
                    "internalType": "address",
                    "name": "from",
                    "type": "address"
                },
                {
                    "indexed": true,
                    "internalType": "address",
                    "name": "to",
                    "type": "address"
                },
                {
                    "indexed": false,
                    "internalType": "uint256",
                    "name": "value",
                    "type": "uint256"
                }
            ],
            "name": "Transfer",
            "type": "event"
        },
        {
            "inputs": [
                {
                    "internalType": "address",
                    "name": "owner",
                    "type": "address"
                },
                {
                    "internalType": "address",
                    "name": "spender",
                    "type": "address"
                }
            ],
            "name": "allowance",
            "outputs": [
                {
                    "internalType": "uint256",
                    "name": "",
                    "type": "uint256"
                }
            ],
            "stateMutability": "view",
            "type": "function"
        },
        {
            "inputs": [
                {
                    "internalType": "address",
                    "name": "spender",
                    "type": "address"
                },
                {
                    "internalType": "uint256",
                    "name": "value",
                    "type": "uint256"
                }
            ],
            "name": "approve",
            "outputs": [
                {
                    "internalType": "bool",
                    "name": "",
                    "type": "bool"
                }
            ],
            "stateMutability": "nonpayable",
            "type": "function"
        },
        {
            "inputs": [
                {
                    "internalType": "address",
                    "name": "account",
                    "type": "address"
                }
            ],
            "name": "balanceOf",
            "outputs": [
                {
                    "internalType": "uint256",
                    "name": "",
                    "type": "uint256"
                }
            ],
            "stateMutability": "view",
            "type": "function"
        },
        {
            "inputs": [
                {
                    "internalType": "uint256",
                    "name": "amount",
                    "type": "uint256"
                }
            ],
            "name": "burn",
            "outputs": [],
            "stateMutability": "nonpayable",
            "type": "function"
        },
        {
            "inputs": [],
            "name": "decimals",
            "outputs": [
                {
                    "internalType": "uint8",
                    "name": "",
                    "type": "uint8"
                }
            ],
            "stateMutability": "view",
            "type": "function"
        },
        {
            "inputs": [
                {
                    "internalType": "address",
                    "name": "to",
                    "type": "address"
                },
                {
                    "internalType": "uint256",
                    "name": "amount",
                    "type": "uint256"
                }
            ],
            "name": "mint",
            "outputs": [],
            "stateMutability": "nonpayable",
            "type": "function"
        },
        {
            "inputs": [],
            "name": "name",
            "outputs": [
                {
                    "internalType": "string",
                    "name": "",
                    "type": "string"
                }
            ],
            "stateMutability": "view",
            "type": "function"
        },
        {
            "inputs": [],
            "name": "owner",
            "outputs": [
                {
                    "internalType": "address",
                    "name": "",
                    "type": "address"
                }
            ],
            "stateMutability": "view",
            "type": "function"
        },
        {
            "inputs": [],
            "name": "symbol",
            "outputs": [
                {
                    "internalType": "string",
                    "name": "",
                    "type": "string"
                }
            ],
            "stateMutability": "view",
            "type": "function"
        },
        {
            "inputs": [],
            "name": "totalSupply",
            "outputs": [
                {
                    "internalType": "uint256",
                    "name": "",
                    "type": "uint256"
                }
            ],
            "stateMutability": "view",
            "type": "function"
        },
        {
            "inputs": [
                {
                    "internalType": "address",
                    "name": "to",
                    "type": "address"
                },
                {
                    "internalType": "uint256",
                    "name": "value",
                    "type": "uint256"
                }
            ],
            "name": "transfer",
            "outputs": [
                {
                    "internalType": "bool",
                    "name": "",
                    "type": "bool"
                }
            ],
            "stateMutability": "nonpayable",
            "type": "function"
        },
        {
            "inputs": [
                {
                    "internalType": "address",
                    "name": "from",
                    "type": "address"
                },
                {
                    "internalType": "address",
                    "name": "to",
                    "type": "address"
                },
                {
                    "internalType": "uint256",
                    "name": "value",
                    "type": "uint256"
                }
            ],
            "name": "transferFrom",
            "outputs": [
                {
                    "internalType": "bool",
                    "name": "",
                    "type": "bool"
                }
            ],
            "stateMutability": "nonpayable",
            "type": "function"
        }
    ],
    "bytecode": "6080604052346103a957610bea80380380610019816103ad565b9283398101906060818303126103a95780516001600160401b0381116103a957826100459183016103d2565b60208201519092906001600160401b0381116103a9576040916100699184016103d2565b91015182516001600160401b0381116102ba57600354600181811c9116801561039f575b602082101461029c57601f811161033c575b506020601f82116001146102d957819293945f926102ce575b50508160011b915f199060031b1c1916176003555b81516001600160401b0381116102ba57600454600181811c911680156102b0575b602082101461029c57601f8111610239575b50602092601f82116001146101d857928192935f926101cd575b50508160011b915f199060031b1c1916176004555b600580546001600160a01b03191633908117909155156101ba576002548181018091116101a657600255335f525f60205260405f208181540190556040519081525f7fddf252ad1be2c89b69c2b068fc378daa952ba7f163c4a11628f55a4df523b3ef60203393a36040516107c690816104248239f35b634e487b7160e01b5f52601160045260245ffd5b63ec442f0560e01b5f525f60045260245ffd5b015190505f8061011a565b601f1982169360045f52805f20915f5b8681106102215750836001959610610209575b505050811b0160045561012f565b01515f1960f88460031b161c191690555f80806101fb565b919260206001819286850151815501940192016101e8565b60045f527f8a35acfbc15ff81a39ae7d344fd709f28e8600b4aa8c65c6b64bfe7fe36bd19b601f830160051c81019160208410610292575b601f0160051c01905b8181106102875750610100565b5f815560010161027a565b9091508190610271565b634e487b7160e01b5f52602260045260245ffd5b90607f16906100ee565b634e487b7160e01b5f52604160045260245ffd5b015190505f806100b8565b601f1982169060035f52805f20915f5b8181106103245750958360019596971061030c575b505050811b016003556100cd565b01515f1960f88460031b161c191690555f80806102fe565b9192602060018192868b0151815501940192016102e9565b60035f527fc2575a0e9e593c00f959f8c92f12db2869c3395a3b0502d05e2516446f71f85b601f830160051c81019160208410610395575b601f0160051c01905b81811061038a575061009f565b5f815560010161037d565b9091508190610374565b90607f169061008d565b5f80fd5b6040519190601f01601f191682016001600160401b038111838210176102ba57604052565b81601f820112156103a9578051906001600160401b0382116102ba57610401601f8301601f19166020016103ad565b92828452602083830101116103a957815f9260208093018386015e830101529056fe6080806040526004361015610012575f80fd5b5f3560e01c90816306fdde03146105d457508063095ea7b31461055257806318160ddd1461053557806323b872dd14610456578063313ce5671461043b57806340c10f191461033f57806342966c681461029f57806370a08231146102685780638da5cb5b1461024057806395d89b4114610125578063a9059cbb146100f45763dd62ed3e146100a0575f80fd5b346100f05760403660031901126100f0576100b96106cd565b6100c16106e3565b6001600160a01b039182165f908152600160209081526040808320949093168252928352819020549051908152f35b5f80fd5b346100f05760403660031901126100f05761011a6101106106cd565b60243590336106f9565b602060405160018152f35b346100f0575f3660031901126100f0576040515f6004548060011c90600181168015610236575b6020831081146102225782855290811561020657506001146101b1575b50819003601f01601f191681019067ffffffffffffffff82118183101761019d57610199829182604052826106a3565b0390f35b634e487b7160e01b5f52604160045260245ffd5b905060045f527f8a35acfbc15ff81a39ae7d344fd709f28e8600b4aa8c65c6b64bfe7fe36bd19b5f905b8282106101f057506020915082010182610169565b60018160209254838588010152019101906101db565b90506020925060ff191682840152151560051b82010182610169565b634e487b7160e01b5f52602260045260245ffd5b91607f169161014c565b346100f0575f3660031901126100f0576005546040516001600160a01b039091168152602090f35b346100f05760203660031901126100f0576001600160a01b036102896106cd565b165f525f602052602060405f2054604051908152f35b346100f05760203660031901126100f057600435331561032c57335f525f60205260405f20548181106103135790805f923384528360205203604083205580600254036002556040519081527fddf252ad1be2c89b69c2b068fc378daa952ba7f163c4a11628f55a4df523b3ef60203392a3005b63391434e360e21b5f523360045260245260445260645ffd5b634b637e8f60e11b5f525f60045260245ffd5b346100f05760403660031901126100f0576103586106cd565b60055460243591906001600160a01b031633036103f6576001600160a01b03169081156103e357600254908082018092116103cf5760207fddf252ad1be2c89b69c2b068fc378daa952ba7f163c4a11628f55a4df523b3ef915f9360025584845283825260408420818154019055604051908152a3005b634e487b7160e01b5f52601160045260245ffd5b63ec442f0560e01b5f525f60045260245ffd5b60405162461bcd60e51b815260206004820152601e60248201527f4f6e6c7920746865206f776e65722063616e206d696e7420746f6b656e7300006044820152606490fd5b346100f0575f3660031901126100f057602060405160128152f35b346100f05760603660031901126100f05761046f6106cd565b6104776106e3565b6001600160a01b0382165f818152600160209081526040808320338452909152902054909260443592915f1981106104b5575b5061011a93506106f9565b83811061051a5784156105075733156104f45761011a945f52600160205260405f2060018060a01b0333165f526020528360405f2091039055846104aa565b634a1406b160e11b5f525f60045260245ffd5b63e602df0560e01b5f525f60045260245ffd5b8390637dc7a0d960e11b5f523360045260245260445260645ffd5b346100f0575f3660031901126100f0576020600254604051908152f35b346100f05760403660031901126100f05761056b6106cd565b602435903315610507576001600160a01b03169081156104f457335f52600160205260405f20825f526020528060405f20556040519081527f8c5be1e5ebec7d5bd14f71427d1e84f3dd0314c0f7b2291e5b200ac8c7c3b92560203392a3602060405160018152f35b346100f0575f3660031901126100f0575f6003548060011c90600181168015610699575b6020831081146102225782855290811561020657506001146106445750819003601f01601f191681019067ffffffffffffffff82118183101761019d57610199829182604052826106a3565b905060035f527fc2575a0e9e593c00f959f8c92f12db2869c3395a3b0502d05e2516446f71f85b5f905b82821061068357506020915082010182610169565b600181602092548385880101520191019061066e565b91607f16916105f8565b602060409281835280519182918282860152018484015e5f828201840152601f01601f1916010190565b600435906001600160a01b03821682036100f057565b602435906001600160a01b03821682036100f057565b6001600160a01b031690811561032c576001600160a01b03169182156103e357815f525f60205260405f205481811061077757817fddf252ad1be2c89b69c2b068fc378daa952ba7f163c4a11628f55a4df523b3ef92602092855f525f84520360405f2055845f525f825260405f20818154019055604051908152a3565b8263391434e360e21b5f5260045260245260445260645ffdfea264697066735822122028b83578a3c90998cc038d7bd212cab560818fc515f84f4c8e25b14b73da0bc564736f6c634300081c0033",
    "sourcePath": "c:/Users/goagv/Documents/PROGRAMACIONWEB3/ERC_ ANON/zk-erc20-project/src/MainContract.sol",
    "compiler": {
        "name": "solc",
        "version": "0.8.28+commit.7893614a"
    },
    "functionHashes": {
        "allowance(address,address)": "dd62ed3e",
        "approve(address,uint256)": "095ea7b3",
        "balanceOf(address)": "70a08231",
        "burn(uint256)": "42966c68",
        "decimals()": "313ce567",
        "mint(address,uint256)": "40c10f19",
        "name()": "06fdde03",
        "owner()": "8da5cb5b",
        "symbol()": "95d89b41",
        "totalSupply()": "18160ddd",
        "transfer(address,uint256)": "a9059cbb",
        "transferFrom(address,address,uint256)": "23b872dd"
    },
    "gasEstimates": {
        "creation": {
            "codeDepositCost": "398000",
            "executionCost": "infinite",
            "totalCost": "infinite"
        },
        "external": {
            "allowance(address,address)": "2812",
            "approve(address,uint256)": "24325",
            "balanceOf(address)": "2559",
            "burn(uint256)": "50649",
            "decimals()": "241",
            "mint(address,uint256)": "52813",
            "name()": "infinite",
            "owner()": "2456",
            "symbol()": "infinite",
            "totalSupply()": "2300",
            "transfer(address,uint256)": "50974",
            "transferFrom(address,address,uint256)": "75523"
        }
    }
}